{
  "_format": "hh-sol-artifact-1",
  "contractName": "EnterpriseInvoice",
  "sourceName": "contracts/EnterpriseInvoice.sol",
  "abi": [
    {
      "inputs": [],
      "stateMutability": "nonpayable",
      "type": "constructor"
    },
    {
      "anonymous": false,
      "inputs": [
        {
          "indexed": true,
          "internalType": "uint256",
          "name": "invoiceId",
          "type": "uint256"
        },
        {
          "indexed": true,
          "internalType": "address",
          "name": "seller",
          "type": "address"
        },
        {
          "indexed": false,
          "internalType": "uint256",
          "name": "amount",
          "type": "uint256"
        },
        {
          "indexed": false,
          "internalType": "string",
          "name": "description",
          "type": "string"
        },
        {
          "indexed": false,
          "internalType": "uint256",
          "name": "timestamp",
          "type": "uint256"
        }
      ],
      "name": "InvoiceCreated",
      "type": "event"
    },
    {
      "anonymous": false,
      "inputs": [
        {
          "indexed": true,
          "internalType": "uint256",
          "name": "invoiceId",
          "type": "uint256"
        },
        {
          "indexed": true,
          "internalType": "address",
          "name": "seller",
          "type": "address"
        },
        {
          "indexed": false,
          "internalType": "uint256",
          "name": "amount",
          "type": "uint256"
        },
        {
          "indexed": false,
          "internalType": "uint256",
          "name": "timestamp",
          "type": "uint256"
        },
        {
          "indexed": false,
          "internalType": "bytes32",
          "name": "offChainPaymentTxHash",
          "type": "bytes32"
        }
      ],
      "name": "InvoicePaid",
      "type": "event"
    },
    {
      "anonymous": false,
      "inputs": [
        {
          "indexed": true,
          "internalType": "bytes32",
          "name": "role",
          "type": "bytes32"
        },
        {
          "indexed": true,
          "internalType": "bytes32",
          "name": "previousAdminRole",
          "type": "bytes32"
        },
        {
          "indexed": true,
          "internalType": "bytes32",
          "name": "newAdminRole",
          "type": "bytes32"
        }
      ],
      "name": "RoleAdminChanged",
      "type": "event"
    },
    {
      "anonymous": false,
      "inputs": [
        {
          "indexed": true,
          "internalType": "bytes32",
          "name": "role",
          "type": "bytes32"
        },
        {
          "indexed": true,
          "internalType": "address",
          "name": "account",
          "type": "address"
        },
        {
          "indexed": true,
          "internalType": "address",
          "name": "sender",
          "type": "address"
        }
      ],
      "name": "RoleGranted",
      "type": "event"
    },
    {
      "anonymous": false,
      "inputs": [
        {
          "indexed": true,
          "internalType": "bytes32",
          "name": "role",
          "type": "bytes32"
        },
        {
          "indexed": true,
          "internalType": "address",
          "name": "account",
          "type": "address"
        },
        {
          "indexed": true,
          "internalType": "address",
          "name": "sender",
          "type": "address"
        }
      ],
      "name": "RoleRevoked",
      "type": "event"
    },
    {
      "anonymous": false,
      "inputs": [
        {
          "indexed": true,
          "internalType": "address",
          "name": "seller",
          "type": "address"
        }
      ],
      "name": "SellerAdded",
      "type": "event"
    },
    {
      "anonymous": false,
      "inputs": [
        {
          "indexed": true,
          "internalType": "address",
          "name": "seller",
          "type": "address"
        }
      ],
      "name": "SellerRemoved",
      "type": "event"
    },
    {
      "inputs": [],
      "name": "DEFAULT_ADMIN_ROLE",
      "outputs": [
        {
          "internalType": "bytes32",
          "name": "",
          "type": "bytes32"
        }
      ],
      "stateMutability": "view",
      "type": "function"
    },
    {
      "inputs": [],
      "name": "SELLER_ROLE",
      "outputs": [
        {
          "internalType": "bytes32",
          "name": "",
          "type": "bytes32"
        }
      ],
      "stateMutability": "view",
      "type": "function"
    },
    {
      "inputs": [
        {
          "internalType": "address",
          "name": "seller",
          "type": "address"
        }
      ],
      "name": "addSeller",
      "outputs": [],
      "stateMutability": "nonpayable",
      "type": "function"
    },
    {
      "inputs": [
        {
          "internalType": "uint256",
          "name": "amount",
          "type": "uint256"
        },
        {
          "internalType": "string",
          "name": "description",
          "type": "string"
        }
      ],
      "name": "createInvoice",
      "outputs": [
        {
          "internalType": "uint256",
          "name": "",
          "type": "uint256"
        }
      ],
      "stateMutability": "nonpayable",
      "type": "function"
    },
    {
      "inputs": [
        {
          "internalType": "uint256",
          "name": "invoiceId",
          "type": "uint256"
        }
      ],
      "name": "getInvoice",
      "outputs": [
        {
          "components": [
            {
              "internalType": "uint256",
              "name": "id",
              "type": "uint256"
            },
            {
              "internalType": "address",
              "name": "seller",
              "type": "address"
            },
            {
              "internalType": "uint256",
              "name": "amount",
              "type": "uint256"
            },
            {
              "internalType": "string",
              "name": "description",
              "type": "string"
            },
            {
              "internalType": "bool",
              "name": "paid",
              "type": "bool"
            },
            {
              "internalType": "uint256",
              "name": "timestamp",
              "type": "uint256"
            }
          ],
          "internalType": "struct EnterpriseInvoice.Invoice",
          "name": "",
          "type": "tuple"
        }
      ],
      "stateMutability": "view",
      "type": "function"
    },
    {
      "inputs": [
        {
          "internalType": "bytes32",
          "name": "role",
          "type": "bytes32"
        }
      ],
      "name": "getRoleAdmin",
      "outputs": [
        {
          "internalType": "bytes32",
          "name": "",
          "type": "bytes32"
        }
      ],
      "stateMutability": "view",
      "type": "function"
    },
    {
      "inputs": [
        {
          "internalType": "bytes32",
          "name": "role",
          "type": "bytes32"
        },
        {
          "internalType": "address",
          "name": "account",
          "type": "address"
        }
      ],
      "name": "grantRole",
      "outputs": [],
      "stateMutability": "nonpayable",
      "type": "function"
    },
    {
      "inputs": [
        {
          "internalType": "bytes32",
          "name": "role",
          "type": "bytes32"
        },
        {
          "internalType": "address",
          "name": "account",
          "type": "address"
        }
      ],
      "name": "hasRole",
      "outputs": [
        {
          "internalType": "bool",
          "name": "",
          "type": "bool"
        }
      ],
      "stateMutability": "view",
      "type": "function"
    },
    {
      "inputs": [
        {
          "internalType": "uint256",
          "name": "",
          "type": "uint256"
        }
      ],
      "name": "invoices",
      "outputs": [
        {
          "internalType": "uint256",
          "name": "id",
          "type": "uint256"
        },
        {
          "internalType": "address",
          "name": "seller",
          "type": "address"
        },
        {
          "internalType": "uint256",
          "name": "amount",
          "type": "uint256"
        },
        {
          "internalType": "string",
          "name": "description",
          "type": "string"
        },
        {
          "internalType": "bool",
          "name": "paid",
          "type": "bool"
        },
        {
          "internalType": "uint256",
          "name": "timestamp",
          "type": "uint256"
        }
      ],
      "stateMutability": "view",
      "type": "function"
    },
    {
      "inputs": [
        {
          "internalType": "uint256",
          "name": "invoiceId",
          "type": "uint256"
        },
        {
          "internalType": "bytes32",
          "name": "offChainPaymentTxHash",
          "type": "bytes32"
        }
      ],
      "name": "payInvoice",
      "outputs": [],
      "stateMutability": "nonpayable",
      "type": "function"
    },
    {
      "inputs": [
        {
          "internalType": "address",
          "name": "seller",
          "type": "address"
        }
      ],
      "name": "removeSeller",
      "outputs": [],
      "stateMutability": "nonpayable",
      "type": "function"
    },
    {
      "inputs": [
        {
          "internalType": "bytes32",
          "name": "role",
          "type": "bytes32"
        },
        {
          "internalType": "address",
          "name": "account",
          "type": "address"
        }
      ],
      "name": "renounceRole",
      "outputs": [],
      "stateMutability": "nonpayable",
      "type": "function"
    },
    {
      "inputs": [
        {
          "internalType": "bytes32",
          "name": "role",
          "type": "bytes32"
        },
        {
          "internalType": "address",
          "name": "account",
          "type": "address"
        }
      ],
      "name": "revokeRole",
      "outputs": [],
      "stateMutability": "nonpayable",
      "type": "function"
    },
    {
      "inputs": [
        {
          "internalType": "bytes4",
          "name": "interfaceId",
          "type": "bytes4"
        }
      ],
      "name": "supportsInterface",
      "outputs": [
        {
          "internalType": "bool",
          "name": "",
          "type": "bool"
        }
      ],
      "stateMutability": "view",
      "type": "function"
    }
  ],
  "bytecode": "0x60806040523480156200001157600080fd5b50620000276000801b336200002d60201b60201c565b620001a6565b6200003f82826200004360201b60201c565b5050565b6200005582826200013460201b60201c565b6200013057600160008084815260200190815260200160002060000160008373ffffffffffffffffffffffffffffffffffffffff1673ffffffffffffffffffffffffffffffffffffffff16815260200190815260200160002060006101000a81548160ff021916908315150217905550620000d56200019e60201b60201c565b73ffffffffffffffffffffffffffffffffffffffff168173ffffffffffffffffffffffffffffffffffffffff16837f2f8788117e7eff1d82e926ec794901d17c78024a50270940304540a733656f0d60405160405180910390a45b5050565b600080600084815260200190815260200160002060000160008373ffffffffffffffffffffffffffffffffffffffff1673ffffffffffffffffffffffffffffffffffffffff16815260200190815260200160002060009054906101000a900460ff16905092915050565b600033905090565b611f5b80620001b66000396000f3fe608060405234801561001057600080fd5b50600436106100ea5760003560e01c80637cb9cf541161008c578063a217fddf11610066578063a217fddf14610284578063d547741f146102a2578063d93fabfa146102be578063dbe4613d146102da576100ea565b80637cb9cf541461021c57806391d14854146102385780639909651e14610268576100ea565b80632f2ff15d116100c85780632f2ff15d1461017f57806336568abe1461019b5780633a23cc0a146101b75780634e6d1405146101e7576100ea565b806301ffc9a7146100ef578063248a9ca31461011f5780632d1aa1181461014f575b600080fd5b6101096004803603810190610104919061118d565b6102f8565b60405161011691906111d5565b60405180910390f35b61013960048036038101906101349190611226565b610372565b6040516101469190611262565b60405180910390f35b610169600480360381019061016491906113f9565b610391565b6040516101769190611464565b60405180910390f35b610199600480360381019061019491906114dd565b610539565b005b6101b560048036038101906101b091906114dd565b61055a565b005b6101d160048036038101906101cc919061151d565b6105dd565b6040516101de919061167f565b60405180910390f35b61020160048036038101906101fc919061151d565b610781565b604051610213969594939291906116fa565b60405180910390f35b61023660048036038101906102319190611762565b610882565b005b610252600480360381019061024d91906114dd565b610900565b60405161025f91906111d5565b60405180910390f35b610282600480360381019061027d919061178f565b61096a565b005b61028c610ad4565b6040516102999190611262565b60405180910390f35b6102bc60048036038101906102b791906114dd565b610adb565b005b6102d860048036038101906102d39190611762565b610afc565b005b6102e2610b7a565b6040516102ef9190611262565b60405180910390f35b60007f7965db0b000000000000000000000000000000000000000000000000000000007bffffffffffffffffffffffffffffffffffffffffffffffffffffffff1916827bffffffffffffffffffffffffffffffffffffffffffffffffffffffff1916148061036b575061036a82610b9e565b5b9050919050565b6000806000838152602001908152602001600020600101549050919050565b60007f43f25613eb2f15fb17222a5d424ca2655743e71265d98e4b93c05e5fb589ecde6103bd81610c08565b6000600180549050905060006040518060c001604052808381526020013373ffffffffffffffffffffffffffffffffffffffff16815260200187815260200186815260200160001515815260200142815250905060018190806001815401808255809150506001900390600052602060002090600602016000909190919091506000820151816000015560208201518160010160006101000a81548173ffffffffffffffffffffffffffffffffffffffff021916908373ffffffffffffffffffffffffffffffffffffffff1602179055506040820151816002015560608201518160030190816104ad91906119db565b5060808201518160040160006101000a81548160ff02191690831515021790555060a0820151816005015550503373ffffffffffffffffffffffffffffffffffffffff16827fbf4b27d474f462d97255189707d8b16ac5530bc4fa2d23f1a56b7091ffdb395f88884260405161052593929190611aad565b60405180910390a381935050505092915050565b61054282610372565b61054b81610c08565b6105558383610c1c565b505050565b610562610cfc565b73ffffffffffffffffffffffffffffffffffffffff168173ffffffffffffffffffffffffffffffffffffffff16146105cf576040517f08c379a00000000000000000000000000000000000000000000000000000000081526004016105c690611b5d565b60405180910390fd5b6105d98282610d04565b5050565b6105e56110d3565b600180549050821061062c576040517f08c379a000000000000000000000000000000000000000000000000000000000815260040161062390611bc9565b60405180910390fd5b600182815481106106405761063f611be9565b5b90600052602060002090600602016040518060c0016040529081600082015481526020016001820160009054906101000a900473ffffffffffffffffffffffffffffffffffffffff1673ffffffffffffffffffffffffffffffffffffffff1673ffffffffffffffffffffffffffffffffffffffff168152602001600282015481526020016003820180546106d3906117fe565b80601f01602080910402602001604051908101604052809291908181526020018280546106ff906117fe565b801561074c5780601f106107215761010080835404028352916020019161074c565b820191906000526020600020905b81548152906001019060200180831161072f57829003601f168201915b505050505081526020016004820160009054906101000a900460ff161515151581526020016005820154815250509050919050565b6001818154811061079157600080fd5b90600052602060002090600602016000915090508060000154908060010160009054906101000a900473ffffffffffffffffffffffffffffffffffffffff16908060020154908060030180546107e6906117fe565b80601f0160208091040260200160405190810160405280929190818152602001828054610812906117fe565b801561085f5780601f106108345761010080835404028352916020019161085f565b820191906000526020600020905b81548152906001019060200180831161084257829003601f168201915b5050505050908060040160009054906101000a900460ff16908060050154905086565b6000801b61088f81610c08565b6108b97f43f25613eb2f15fb17222a5d424ca2655743e71265d98e4b93c05e5fb589ecde83610adb565b8173ffffffffffffffffffffffffffffffffffffffff167fa6f3b3030df964d974376ba4db21cbe49207bd79998f0d619c1c3a422259707f60405160405180910390a25050565b600080600084815260200190815260200160002060000160008373ffffffffffffffffffffffffffffffffffffffff1673ffffffffffffffffffffffffffffffffffffffff16815260200190815260200160002060009054906101000a900460ff16905092915050565b6000801b61097781610c08565b60018054905083106109be576040517f08c379a00000000000000000000000000000000000000000000000000000000081526004016109b590611bc9565b60405180910390fd5b6000600184815481106109d4576109d3611be9565b5b906000526020600020906006020190508060040160009054906101000a900460ff1615610a36576040517f08c379a0000000000000000000000000000000000000000000000000000000008152600401610a2d90611c64565b60405180910390fd5b60018160040160006101000a81548160ff0219169083151502179055508060010160009054906101000a900473ffffffffffffffffffffffffffffffffffffffff1673ffffffffffffffffffffffffffffffffffffffff16847f141f86729fa6063a0d9dcc127908820e283cc1ab04130a5d87d53b4cb4f3170a83600201544287604051610ac693929190611c84565b60405180910390a350505050565b6000801b81565b610ae482610372565b610aed81610c08565b610af78383610d04565b505050565b6000801b610b0981610c08565b610b337f43f25613eb2f15fb17222a5d424ca2655743e71265d98e4b93c05e5fb589ecde83610539565b8173ffffffffffffffffffffffffffffffffffffffff167f3d78526f2568d430fd8e20719601f7bc3f979936f8880236cc284e8127251b4260405160405180910390a25050565b7f43f25613eb2f15fb17222a5d424ca2655743e71265d98e4b93c05e5fb589ecde81565b60007f01ffc9a7000000000000000000000000000000000000000000000000000000007bffffffffffffffffffffffffffffffffffffffffffffffffffffffff1916827bffffffffffffffffffffffffffffffffffffffffffffffffffffffff1916149050919050565b610c1981610c14610cfc565b610de5565b50565b610c268282610900565b610cf857600160008084815260200190815260200160002060000160008373ffffffffffffffffffffffffffffffffffffffff1673ffffffffffffffffffffffffffffffffffffffff16815260200190815260200160002060006101000a81548160ff021916908315150217905550610c9d610cfc565b73ffffffffffffffffffffffffffffffffffffffff168173ffffffffffffffffffffffffffffffffffffffff16837f2f8788117e7eff1d82e926ec794901d17c78024a50270940304540a733656f0d60405160405180910390a45b5050565b600033905090565b610d0e8282610900565b15610de157600080600084815260200190815260200160002060000160008373ffffffffffffffffffffffffffffffffffffffff1673ffffffffffffffffffffffffffffffffffffffff16815260200190815260200160002060006101000a81548160ff021916908315150217905550610d86610cfc565b73ffffffffffffffffffffffffffffffffffffffff168173ffffffffffffffffffffffffffffffffffffffff16837ff6391f5c32d9c69d2a47ea670b442974b53935d1edc7fd64eb21e047a839171b60405160405180910390a45b5050565b610def8282610900565b610e6657610dfc81610e6a565b610e0a8360001c6020610e97565b604051602001610e1b929190611d8f565b6040516020818303038152906040526040517f08c379a0000000000000000000000000000000000000000000000000000000008152600401610e5d9190611dc9565b60405180910390fd5b5050565b6060610e908273ffffffffffffffffffffffffffffffffffffffff16601460ff16610e97565b9050919050565b606060006002836002610eaa9190611e1a565b610eb49190611e5c565b67ffffffffffffffff811115610ecd57610ecc6112ce565b5b6040519080825280601f01601f191660200182016040528015610eff5781602001600182028036833780820191505090505b5090507f300000000000000000000000000000000000000000000000000000000000000081600081518110610f3757610f36611be9565b5b60200101907effffffffffffffffffffffffffffffffffffffffffffffffffffffffffffff1916908160001a9053507f780000000000000000000000000000000000000000000000000000000000000081600181518110610f9b57610f9a611be9565b5b60200101907effffffffffffffffffffffffffffffffffffffffffffffffffffffffffffff1916908160001a90535060006001846002610fdb9190611e1a565b610fe59190611e5c565b90505b6001811115611085577f3031323334353637383961626364656600000000000000000000000000000000600f86166010811061102757611026611be9565b5b1a60f81b82828151811061103e5761103d611be9565b5b60200101907effffffffffffffffffffffffffffffffffffffffffffffffffffffffffffff1916908160001a905350600485901c94508061107e90611e90565b9050610fe8565b50600084146110c9576040517f08c379a00000000000000000000000000000000000000000000000000000000081526004016110c090611f05565b60405180910390fd5b8091505092915050565b6040518060c0016040528060008152602001600073ffffffffffffffffffffffffffffffffffffffff1681526020016000815260200160608152602001600015158152602001600081525090565b6000604051905090565b600080fd5b600080fd5b60007fffffffff0000000000000000000000000000000000000000000000000000000082169050919050565b61116a81611135565b811461117557600080fd5b50565b60008135905061118781611161565b92915050565b6000602082840312156111a3576111a261112b565b5b60006111b184828501611178565b91505092915050565b60008115159050919050565b6111cf816111ba565b82525050565b60006020820190506111ea60008301846111c6565b92915050565b6000819050919050565b611203816111f0565b811461120e57600080fd5b50565b600081359050611220816111fa565b92915050565b60006020828403121561123c5761123b61112b565b5b600061124a84828501611211565b91505092915050565b61125c816111f0565b82525050565b60006020820190506112776000830184611253565b92915050565b6000819050919050565b6112908161127d565b811461129b57600080fd5b50565b6000813590506112ad81611287565b92915050565b600080fd5b600080fd5b6000601f19601f8301169050919050565b7f4e487b7100000000000000000000000000000000000000000000000000000000600052604160045260246000fd5b611306826112bd565b810181811067ffffffffffffffff82111715611325576113246112ce565b5b80604052505050565b6000611338611121565b905061134482826112fd565b919050565b600067ffffffffffffffff821115611364576113636112ce565b5b61136d826112bd565b9050602081019050919050565b82818337600083830152505050565b600061139c61139784611349565b61132e565b9050828152602081018484840111156113b8576113b76112b8565b5b6113c384828561137a565b509392505050565b600082601f8301126113e0576113df6112b3565b5b81356113f0848260208601611389565b91505092915050565b600080604083850312156114105761140f61112b565b5b600061141e8582860161129e565b925050602083013567ffffffffffffffff81111561143f5761143e611130565b5b61144b858286016113cb565b9150509250929050565b61145e8161127d565b82525050565b60006020820190506114796000830184611455565b92915050565b600073ffffffffffffffffffffffffffffffffffffffff82169050919050565b60006114aa8261147f565b9050919050565b6114ba8161149f565b81146114c557600080fd5b50565b6000813590506114d7816114b1565b92915050565b600080604083850312156114f4576114f361112b565b5b600061150285828601611211565b9250506020611513858286016114c8565b9150509250929050565b6000602082840312156115335761153261112b565b5b60006115418482850161129e565b91505092915050565b6115538161127d565b82525050565b6115628161149f565b82525050565b600081519050919050565b600082825260208201905092915050565b60005b838110156115a2578082015181840152602081019050611587565b60008484015250505050565b60006115b982611568565b6115c38185611573565b93506115d3818560208601611584565b6115dc816112bd565b840191505092915050565b6115f0816111ba565b82525050565b600060c08301600083015161160e600086018261154a565b5060208301516116216020860182611559565b506040830151611634604086018261154a565b506060830151848203606086015261164c82826115ae565b915050608083015161166160808601826115e7565b5060a083015161167460a086018261154a565b508091505092915050565b6000602082019050818103600083015261169981846115f6565b905092915050565b6116aa8161149f565b82525050565b600082825260208201905092915050565b60006116cc82611568565b6116d681856116b0565b93506116e6818560208601611584565b6116ef816112bd565b840191505092915050565b600060c08201905061170f6000830189611455565b61171c60208301886116a1565b6117296040830187611455565b818103606083015261173b81866116c1565b905061174a60808301856111c6565b61175760a0830184611455565b979650505050505050565b6000602082840312156117785761177761112b565b5b6000611786848285016114c8565b91505092915050565b600080604083850312156117a6576117a561112b565b5b60006117b48582860161129e565b92505060206117c585828601611211565b9150509250929050565b7f4e487b7100000000000000000000000000000000000000000000000000000000600052602260045260246000fd5b6000600282049050600182168061181657607f821691505b602082108103611829576118286117cf565b5b50919050565b60008190508160005260206000209050919050565b60006020601f8301049050919050565b600082821b905092915050565b6000600883026118917fffffffffffffffffffffffffffffffffffffffffffffffffffffffffffffffff82611854565b61189b8683611854565b95508019841693508086168417925050509392505050565b6000819050919050565b60006118d86118d36118ce8461127d565b6118b3565b61127d565b9050919050565b6000819050919050565b6118f2836118bd565b6119066118fe826118df565b848454611861565b825550505050565b600090565b61191b61190e565b6119268184846118e9565b505050565b5b8181101561194a5761193f600082611913565b60018101905061192c565b5050565b601f82111561198f576119608161182f565b61196984611844565b81016020851015611978578190505b61198c61198485611844565b83018261192b565b50505b505050565b600082821c905092915050565b60006119b260001984600802611994565b1980831691505092915050565b60006119cb83836119a1565b9150826002028217905092915050565b6119e482611568565b67ffffffffffffffff8111156119fd576119fc6112ce565b5b611a0782546117fe565b611a1282828561194e565b600060209050601f831160018114611a455760008415611a33578287015190505b611a3d85826119bf565b865550611aa5565b601f198416611a538661182f565b60005b82811015611a7b57848901518255600182019150602085019450602081019050611a56565b86831015611a985784890151611a94601f8916826119a1565b8355505b6001600288020188555050505b505050505050565b6000606082019050611ac26000830186611455565b8181036020830152611ad481856116c1565b9050611ae36040830184611455565b949350505050565b7f416363657373436f6e74726f6c3a2063616e206f6e6c792072656e6f756e636560008201527f20726f6c657320666f722073656c660000000000000000000000000000000000602082015250565b6000611b47602f836116b0565b9150611b5282611aeb565b604082019050919050565b60006020820190508181036000830152611b7681611b3a565b9050919050565b7f496e766f69636520646f6573206e6f7420657869737400000000000000000000600082015250565b6000611bb36016836116b0565b9150611bbe82611b7d565b602082019050919050565b60006020820190508181036000830152611be281611ba6565b9050919050565b7f4e487b7100000000000000000000000000000000000000000000000000000000600052603260045260246000fd5b7f496e766f69636520616c72656164792070616964000000000000000000000000600082015250565b6000611c4e6014836116b0565b9150611c5982611c18565b602082019050919050565b60006020820190508181036000830152611c7d81611c41565b9050919050565b6000606082019050611c996000830186611455565b611ca66020830185611455565b611cb36040830184611253565b949350505050565b600081905092915050565b7f416363657373436f6e74726f6c3a206163636f756e7420000000000000000000600082015250565b6000611cfc601783611cbb565b9150611d0782611cc6565b601782019050919050565b6000611d1d82611568565b611d278185611cbb565b9350611d37818560208601611584565b80840191505092915050565b7f206973206d697373696e6720726f6c6520000000000000000000000000000000600082015250565b6000611d79601183611cbb565b9150611d8482611d43565b601182019050919050565b6000611d9a82611cef565b9150611da68285611d12565b9150611db182611d6c565b9150611dbd8284611d12565b91508190509392505050565b60006020820190508181036000830152611de381846116c1565b905092915050565b7f4e487b7100000000000000000000000000000000000000000000000000000000600052601160045260246000fd5b6000611e258261127d565b9150611e308361127d565b9250828202611e3e8161127d565b91508282048414831517611e5557611e54611deb565b5b5092915050565b6000611e678261127d565b9150611e728361127d565b9250828201905080821115611e8a57611e89611deb565b5b92915050565b6000611e9b8261127d565b915060008203611eae57611ead611deb565b5b600182039050919050565b7f537472696e67733a20686578206c656e67746820696e73756666696369656e74600082015250565b6000611eef6020836116b0565b9150611efa82611eb9565b602082019050919050565b60006020820190508181036000830152611f1e81611ee2565b905091905056fea264697066735822122084f94c6f5e4348db3e30e79a2e1e046b10544a186f96aa71aa01864902ffb18064736f6c63430008120033",
  "linkReferences": {},
  "deployedLinkReferences": {}
}