{
  "_format": "hh-sol-artifact-1",
  "contractName": "EnterpriseInvoice",
  "sourceName": "contracts/EnterpriseInvoice.sol",
  "abi": [
    {
      "inputs": [],
      "stateMutability": "nonpayable",
      "type": "constructor"
    },
    {
      "anonymous": false,
      "inputs": [
        {
          "indexed": true,
          "internalType": "uint256",
          "name": "invoiceId",
          "type": "uint256"
        },
        {
          "indexed": true,
          "internalType": "address",
          "name": "seller",
          "type": "address"
        },
        {
          "indexed": false,
          "internalType": "uint256",
          "name": "amount",
          "type": "uint256"
        },
        {
          "indexed": false,
          "internalType": "string",
          "name": "description",
          "type": "string"
        },
        {
          "indexed": false,
          "internalType": "uint256",
          "name": "timestamp",
          "type": "uint256"
        }
      ],
      "name": "InvoiceCreated",
      "type": "event"
    },
    {
      "anonymous": false,
      "inputs": [
        {
          "indexed": true,
          "internalType": "uint256",
          "name": "invoiceId",
          "type": "uint256"
        },
        {
          "indexed": true,
          "internalType": "address",
          "name": "seller",
          "type": "address"
        },
        {
          "indexed": false,
          "internalType": "uint256",
          "name": "amount",
          "type": "uint256"
        },
        {
          "indexed": false,
          "internalType": "uint256",
          "name": "timestamp",
          "type": "uint256"
        },
        {
          "indexed": false,
          "internalType": "bytes32",
          "name": "offChainPaymentTxHash",
          "type": "bytes32"
        }
      ],
      "name": "InvoicePaid",
      "type": "event"
    },
    {
      "anonymous": false,
      "inputs": [
        {
          "indexed": true,
          "internalType": "bytes32",
          "name": "role",
          "type": "bytes32"
        },
        {
          "indexed": true,
          "internalType": "bytes32",
          "name": "previousAdminRole",
          "type": "bytes32"
        },
        {
          "indexed": true,
          "internalType": "bytes32",
          "name": "newAdminRole",
          "type": "bytes32"
        }
      ],
      "name": "RoleAdminChanged",
      "type": "event"
    },
    {
      "anonymous": false,
      "inputs": [
        {
          "indexed": true,
          "internalType": "bytes32",
          "name": "role",
          "type": "bytes32"
        },
        {
          "indexed": true,
          "internalType": "address",
          "name": "account",
          "type": "address"
        },
        {
          "indexed": true,
          "internalType": "address",
          "name": "sender",
          "type": "address"
        }
      ],
      "name": "RoleGranted",
      "type": "event"
    },
    {
      "anonymous": false,
      "inputs": [
        {
          "indexed": true,
          "internalType": "bytes32",
          "name": "role",
          "type": "bytes32"
        },
        {
          "indexed": true,
          "internalType": "address",
          "name": "account",
          "type": "address"
        },
        {
          "indexed": true,
          "internalType": "address",
          "name": "sender",
          "type": "address"
        }
      ],
      "name": "RoleRevoked",
      "type": "event"
    },
    {
      "anonymous": false,
      "inputs": [
        {
          "indexed": true,
          "internalType": "address",
          "name": "seller",
          "type": "address"
        }
      ],
      "name": "SellerAdded",
      "type": "event"
    },
    {
      "anonymous": false,
      "inputs": [
        {
          "indexed": true,
          "internalType": "address",
          "name": "seller",
          "type": "address"
        }
      ],
      "name": "SellerRemoved",
      "type": "event"
    },
    {
      "inputs": [],
      "name": "DEFAULT_ADMIN_ROLE",
      "outputs": [
        {
          "internalType": "bytes32",
          "name": "",
          "type": "bytes32"
        }
      ],
      "stateMutability": "view",
      "type": "function"
    },
    {
      "inputs": [],
      "name": "SELLER_ROLE",
      "outputs": [
        {
          "internalType": "bytes32",
          "name": "",
          "type": "bytes32"
        }
      ],
      "stateMutability": "view",
      "type": "function"
    },
    {
      "inputs": [
        {
          "internalType": "address",
          "name": "seller",
          "type": "address"
        }
      ],
      "name": "addSeller",
      "outputs": [],
      "stateMutability": "nonpayable",
      "type": "function"
    },
    {
      "inputs": [
        {
          "internalType": "uint256",
          "name": "amount",
          "type": "uint256"
        },
        {
          "internalType": "string",
          "name": "description",
          "type": "string"
        }
      ],
      "name": "createInvoice",
      "outputs": [
        {
          "internalType": "uint256",
          "name": "",
          "type": "uint256"
        }
      ],
      "stateMutability": "nonpayable",
      "type": "function"
    },
    {
      "inputs": [
        {
          "internalType": "uint256",
          "name": "invoiceId",
          "type": "uint256"
        }
      ],
      "name": "getInvoice",
      "outputs": [
        {
          "components": [
            {
              "internalType": "uint256",
              "name": "id",
              "type": "uint256"
            },
            {
              "internalType": "address",
              "name": "seller",
              "type": "address"
            },
            {
              "internalType": "uint256",
              "name": "amount",
              "type": "uint256"
            },
            {
              "internalType": "string",
              "name": "description",
              "type": "string"
            },
            {
              "internalType": "bool",
              "name": "paid",
              "type": "bool"
            },
            {
              "internalType": "uint256",
              "name": "timestamp",
              "type": "uint256"
            }
          ],
          "internalType": "struct EnterpriseInvoice.Invoice",
          "name": "",
          "type": "tuple"
        }
      ],
      "stateMutability": "view",
      "type": "function"
    },
    {
      "inputs": [],
      "name": "getInvoiceCount",
      "outputs": [
        {
          "internalType": "uint256",
          "name": "",
          "type": "uint256"
        }
      ],
      "stateMutability": "view",
      "type": "function"
    },
    {
      "inputs": [
        {
          "internalType": "bytes32",
          "name": "role",
          "type": "bytes32"
        }
      ],
      "name": "getRoleAdmin",
      "outputs": [
        {
          "internalType": "bytes32",
          "name": "",
          "type": "bytes32"
        }
      ],
      "stateMutability": "view",
      "type": "function"
    },
    {
      "inputs": [
        {
          "internalType": "bytes32",
          "name": "role",
          "type": "bytes32"
        },
        {
          "internalType": "address",
          "name": "account",
          "type": "address"
        }
      ],
      "name": "grantRole",
      "outputs": [],
      "stateMutability": "nonpayable",
      "type": "function"
    },
    {
      "inputs": [
        {
          "internalType": "bytes32",
          "name": "role",
          "type": "bytes32"
        },
        {
          "internalType": "address",
          "name": "account",
          "type": "address"
        }
      ],
      "name": "hasRole",
      "outputs": [
        {
          "internalType": "bool",
          "name": "",
          "type": "bool"
        }
      ],
      "stateMutability": "view",
      "type": "function"
    },
    {
      "inputs": [
        {
          "internalType": "uint256",
          "name": "",
          "type": "uint256"
        }
      ],
      "name": "invoices",
      "outputs": [
        {
          "internalType": "uint256",
          "name": "id",
          "type": "uint256"
        },
        {
          "internalType": "address",
          "name": "seller",
          "type": "address"
        },
        {
          "internalType": "uint256",
          "name": "amount",
          "type": "uint256"
        },
        {
          "internalType": "string",
          "name": "description",
          "type": "string"
        },
        {
          "internalType": "bool",
          "name": "paid",
          "type": "bool"
        },
        {
          "internalType": "uint256",
          "name": "timestamp",
          "type": "uint256"
        }
      ],
      "stateMutability": "view",
      "type": "function"
    },
    {
      "inputs": [
        {
          "internalType": "uint256",
          "name": "invoiceId",
          "type": "uint256"
        },
        {
          "internalType": "bytes32",
          "name": "offChainPaymentTxHash",
          "type": "bytes32"
        }
      ],
      "name": "payInvoice",
      "outputs": [],
      "stateMutability": "nonpayable",
      "type": "function"
    },
    {
      "inputs": [
        {
          "internalType": "address",
          "name": "seller",
          "type": "address"
        }
      ],
      "name": "removeSeller",
      "outputs": [],
      "stateMutability": "nonpayable",
      "type": "function"
    },
    {
      "inputs": [
        {
          "internalType": "bytes32",
          "name": "role",
          "type": "bytes32"
        },
        {
          "internalType": "address",
          "name": "account",
          "type": "address"
        }
      ],
      "name": "renounceRole",
      "outputs": [],
      "stateMutability": "nonpayable",
      "type": "function"
    },
    {
      "inputs": [
        {
          "internalType": "bytes32",
          "name": "role",
          "type": "bytes32"
        },
        {
          "internalType": "address",
          "name": "account",
          "type": "address"
        }
      ],
      "name": "revokeRole",
      "outputs": [],
      "stateMutability": "nonpayable",
      "type": "function"
    },
    {
      "inputs": [
        {
          "internalType": "bytes4",
          "name": "interfaceId",
          "type": "bytes4"
        }
      ],
      "name": "supportsInterface",
      "outputs": [
        {
          "internalType": "bool",
          "name": "",
          "type": "bool"
        }
      ],
      "stateMutability": "view",
      "type": "function"
    }
  ],
  "bytecode": "0x60806040523480156200001157600080fd5b50620000276000801b336200002d60201b60201c565b620001a6565b6200003f82826200004360201b60201c565b5050565b6200005582826200013460201b60201c565b6200013057600160008084815260200190815260200160002060000160008373ffffffffffffffffffffffffffffffffffffffff1673ffffffffffffffffffffffffffffffffffffffff16815260200190815260200160002060006101000a81548160ff021916908315150217905550620000d56200019e60201b60201c565b73ffffffffffffffffffffffffffffffffffffffff168173ffffffffffffffffffffffffffffffffffffffff16837f2f8788117e7eff1d82e926ec794901d17c78024a50270940304540a733656f0d60405160405180910390a45b5050565b600080600084815260200190815260200160002060000160008373ffffffffffffffffffffffffffffffffffffffff1673ffffffffffffffffffffffffffffffffffffffff16815260200190815260200160002060009054906101000a900460ff16905092915050565b600033905090565b611f9180620001b66000396000f3fe608060405234801561001057600080fd5b50600436106100f55760003560e01c80637cb9cf5411610097578063a217fddf11610066578063a217fddf146102ad578063d547741f146102cb578063d93fabfa146102e7578063dbe4613d14610303576100f5565b80637cb9cf54146102275780637d6a59ed1461024357806391d14854146102615780639909651e14610291576100f5565b80632f2ff15d116100d35780632f2ff15d1461018a57806336568abe146101a65780633a23cc0a146101c25780634e6d1405146101f2576100f5565b806301ffc9a7146100fa578063248a9ca31461012a5780632d1aa1181461015a575b600080fd5b610114600480360381019061010f91906111c3565b610321565b604051610121919061120b565b60405180910390f35b610144600480360381019061013f919061125c565b61039b565b6040516101519190611298565b60405180910390f35b610174600480360381019061016f919061142f565b6103ba565b604051610181919061149a565b60405180910390f35b6101a4600480360381019061019f9190611513565b610562565b005b6101c060048036038101906101bb9190611513565b610583565b005b6101dc60048036038101906101d79190611553565b610606565b6040516101e991906116b5565b60405180910390f35b61020c60048036038101906102079190611553565b6107aa565b60405161021e96959493929190611730565b60405180910390f35b610241600480360381019061023c9190611798565b6108ab565b005b61024b610929565b604051610258919061149a565b60405180910390f35b61027b60048036038101906102769190611513565b610936565b604051610288919061120b565b60405180910390f35b6102ab60048036038101906102a691906117c5565b6109a0565b005b6102b5610b0a565b6040516102c29190611298565b60405180910390f35b6102e560048036038101906102e09190611513565b610b11565b005b61030160048036038101906102fc9190611798565b610b32565b005b61030b610bb0565b6040516103189190611298565b60405180910390f35b60007f7965db0b000000000000000000000000000000000000000000000000000000007bffffffffffffffffffffffffffffffffffffffffffffffffffffffff1916827bffffffffffffffffffffffffffffffffffffffffffffffffffffffff19161480610394575061039382610bd4565b5b9050919050565b6000806000838152602001908152602001600020600101549050919050565b60007f43f25613eb2f15fb17222a5d424ca2655743e71265d98e4b93c05e5fb589ecde6103e681610c3e565b6000600180549050905060006040518060c001604052808381526020013373ffffffffffffffffffffffffffffffffffffffff16815260200187815260200186815260200160001515815260200142815250905060018190806001815401808255809150506001900390600052602060002090600602016000909190919091506000820151816000015560208201518160010160006101000a81548173ffffffffffffffffffffffffffffffffffffffff021916908373ffffffffffffffffffffffffffffffffffffffff1602179055506040820151816002015560608201518160030190816104d69190611a11565b5060808201518160040160006101000a81548160ff02191690831515021790555060a0820151816005015550503373ffffffffffffffffffffffffffffffffffffffff16827fbf4b27d474f462d97255189707d8b16ac5530bc4fa2d23f1a56b7091ffdb395f88884260405161054e93929190611ae3565b60405180910390a381935050505092915050565b61056b8261039b565b61057481610c3e565b61057e8383610c52565b505050565b61058b610d32565b73ffffffffffffffffffffffffffffffffffffffff168173ffffffffffffffffffffffffffffffffffffffff16146105f8576040517f08c379a00000000000000000000000000000000000000000000000000000000081526004016105ef90611b93565b60405180910390fd5b6106028282610d3a565b5050565b61060e611109565b6001805490508210610655576040517f08c379a000000000000000000000000000000000000000000000000000000000815260040161064c90611bff565b60405180910390fd5b6001828154811061066957610668611c1f565b5b90600052602060002090600602016040518060c0016040529081600082015481526020016001820160009054906101000a900473ffffffffffffffffffffffffffffffffffffffff1673ffffffffffffffffffffffffffffffffffffffff1673ffffffffffffffffffffffffffffffffffffffff168152602001600282015481526020016003820180546106fc90611834565b80601f016020809104026020016040519081016040528092919081815260200182805461072890611834565b80156107755780601f1061074a57610100808354040283529160200191610775565b820191906000526020600020905b81548152906001019060200180831161075857829003601f168201915b505050505081526020016004820160009054906101000a900460ff161515151581526020016005820154815250509050919050565b600181815481106107ba57600080fd5b90600052602060002090600602016000915090508060000154908060010160009054906101000a900473ffffffffffffffffffffffffffffffffffffffff169080600201549080600301805461080f90611834565b80601f016020809104026020016040519081016040528092919081815260200182805461083b90611834565b80156108885780601f1061085d57610100808354040283529160200191610888565b820191906000526020600020905b81548152906001019060200180831161086b57829003601f168201915b5050505050908060040160009054906101000a900460ff16908060050154905086565b6000801b6108b881610c3e565b6108e27f43f25613eb2f15fb17222a5d424ca2655743e71265d98e4b93c05e5fb589ecde83610b11565b8173ffffffffffffffffffffffffffffffffffffffff167fa6f3b3030df964d974376ba4db21cbe49207bd79998f0d619c1c3a422259707f60405160405180910390a25050565b6000600180549050905090565b600080600084815260200190815260200160002060000160008373ffffffffffffffffffffffffffffffffffffffff1673ffffffffffffffffffffffffffffffffffffffff16815260200190815260200160002060009054906101000a900460ff16905092915050565b6000801b6109ad81610c3e565b60018054905083106109f4576040517f08c379a00000000000000000000000000000000000000000000000000000000081526004016109eb90611bff565b60405180910390fd5b600060018481548110610a0a57610a09611c1f565b5b906000526020600020906006020190508060040160009054906101000a900460ff1615610a6c576040517f08c379a0000000000000000000000000000000000000000000000000000000008152600401610a6390611c9a565b60405180910390fd5b60018160040160006101000a81548160ff0219169083151502179055508060010160009054906101000a900473ffffffffffffffffffffffffffffffffffffffff1673ffffffffffffffffffffffffffffffffffffffff16847f141f86729fa6063a0d9dcc127908820e283cc1ab04130a5d87d53b4cb4f3170a83600201544287604051610afc93929190611cba565b60405180910390a350505050565b6000801b81565b610b1a8261039b565b610b2381610c3e565b610b2d8383610d3a565b505050565b6000801b610b3f81610c3e565b610b697f43f25613eb2f15fb17222a5d424ca2655743e71265d98e4b93c05e5fb589ecde83610562565b8173ffffffffffffffffffffffffffffffffffffffff167f3d78526f2568d430fd8e20719601f7bc3f979936f8880236cc284e8127251b4260405160405180910390a25050565b7f43f25613eb2f15fb17222a5d424ca2655743e71265d98e4b93c05e5fb589ecde81565b60007f01ffc9a7000000000000000000000000000000000000000000000000000000007bffffffffffffffffffffffffffffffffffffffffffffffffffffffff1916827bffffffffffffffffffffffffffffffffffffffffffffffffffffffff1916149050919050565b610c4f81610c4a610d32565b610e1b565b50565b610c5c8282610936565b610d2e57600160008084815260200190815260200160002060000160008373ffffffffffffffffffffffffffffffffffffffff1673ffffffffffffffffffffffffffffffffffffffff16815260200190815260200160002060006101000a81548160ff021916908315150217905550610cd3610d32565b73ffffffffffffffffffffffffffffffffffffffff168173ffffffffffffffffffffffffffffffffffffffff16837f2f8788117e7eff1d82e926ec794901d17c78024a50270940304540a733656f0d60405160405180910390a45b5050565b600033905090565b610d448282610936565b15610e1757600080600084815260200190815260200160002060000160008373ffffffffffffffffffffffffffffffffffffffff1673ffffffffffffffffffffffffffffffffffffffff16815260200190815260200160002060006101000a81548160ff021916908315150217905550610dbc610d32565b73ffffffffffffffffffffffffffffffffffffffff168173ffffffffffffffffffffffffffffffffffffffff16837ff6391f5c32d9c69d2a47ea670b442974b53935d1edc7fd64eb21e047a839171b60405160405180910390a45b5050565b610e258282610936565b610e9c57610e3281610ea0565b610e408360001c6020610ecd565b604051602001610e51929190611dc5565b6040516020818303038152906040526040517f08c379a0000000000000000000000000000000000000000000000000000000008152600401610e939190611dff565b60405180910390fd5b5050565b6060610ec68273ffffffffffffffffffffffffffffffffffffffff16601460ff16610ecd565b9050919050565b606060006002836002610ee09190611e50565b610eea9190611e92565b67ffffffffffffffff811115610f0357610f02611304565b5b6040519080825280601f01601f191660200182016040528015610f355781602001600182028036833780820191505090505b5090507f300000000000000000000000000000000000000000000000000000000000000081600081518110610f6d57610f6c611c1f565b5b60200101907effffffffffffffffffffffffffffffffffffffffffffffffffffffffffffff1916908160001a9053507f780000000000000000000000000000000000000000000000000000000000000081600181518110610fd157610fd0611c1f565b5b60200101907effffffffffffffffffffffffffffffffffffffffffffffffffffffffffffff1916908160001a905350600060018460026110119190611e50565b61101b9190611e92565b90505b60018111156110bb577f3031323334353637383961626364656600000000000000000000000000000000600f86166010811061105d5761105c611c1f565b5b1a60f81b82828151811061107457611073611c1f565b5b60200101907effffffffffffffffffffffffffffffffffffffffffffffffffffffffffffff1916908160001a905350600485901c9450806110b490611ec6565b905061101e565b50600084146110ff576040517f08c379a00000000000000000000000000000000000000000000000000000000081526004016110f690611f3b565b60405180910390fd5b8091505092915050565b6040518060c0016040528060008152602001600073ffffffffffffffffffffffffffffffffffffffff1681526020016000815260200160608152602001600015158152602001600081525090565b6000604051905090565b600080fd5b600080fd5b60007fffffffff0000000000000000000000000000000000000000000000000000000082169050919050565b6111a08161116b565b81146111ab57600080fd5b50565b6000813590506111bd81611197565b92915050565b6000602082840312156111d9576111d8611161565b5b60006111e7848285016111ae565b91505092915050565b60008115159050919050565b611205816111f0565b82525050565b600060208201905061122060008301846111fc565b92915050565b6000819050919050565b61123981611226565b811461124457600080fd5b50565b60008135905061125681611230565b92915050565b60006020828403121561127257611271611161565b5b600061128084828501611247565b91505092915050565b61129281611226565b82525050565b60006020820190506112ad6000830184611289565b92915050565b6000819050919050565b6112c6816112b3565b81146112d157600080fd5b50565b6000813590506112e3816112bd565b92915050565b600080fd5b600080fd5b6000601f19601f8301169050919050565b7f4e487b7100000000000000000000000000000000000000000000000000000000600052604160045260246000fd5b61133c826112f3565b810181811067ffffffffffffffff8211171561135b5761135a611304565b5b80604052505050565b600061136e611157565b905061137a8282611333565b919050565b600067ffffffffffffffff82111561139a57611399611304565b5b6113a3826112f3565b9050602081019050919050565b82818337600083830152505050565b60006113d26113cd8461137f565b611364565b9050828152602081018484840111156113ee576113ed6112ee565b5b6113f98482856113b0565b509392505050565b600082601f830112611416576114156112e9565b5b81356114268482602086016113bf565b91505092915050565b6000806040838503121561144657611445611161565b5b6000611454858286016112d4565b925050602083013567ffffffffffffffff81111561147557611474611166565b5b61148185828601611401565b9150509250929050565b611494816112b3565b82525050565b60006020820190506114af600083018461148b565b92915050565b600073ffffffffffffffffffffffffffffffffffffffff82169050919050565b60006114e0826114b5565b9050919050565b6114f0816114d5565b81146114fb57600080fd5b50565b60008135905061150d816114e7565b92915050565b6000806040838503121561152a57611529611161565b5b600061153885828601611247565b9250506020611549858286016114fe565b9150509250929050565b60006020828403121561156957611568611161565b5b6000611577848285016112d4565b91505092915050565b611589816112b3565b82525050565b611598816114d5565b82525050565b600081519050919050565b600082825260208201905092915050565b60005b838110156115d85780820151818401526020810190506115bd565b60008484015250505050565b60006115ef8261159e565b6115f981856115a9565b93506116098185602086016115ba565b611612816112f3565b840191505092915050565b611626816111f0565b82525050565b600060c0830160008301516116446000860182611580565b506020830151611657602086018261158f565b50604083015161166a6040860182611580565b506060830151848203606086015261168282826115e4565b9150506080830151611697608086018261161d565b5060a08301516116aa60a0860182611580565b508091505092915050565b600060208201905081810360008301526116cf818461162c565b905092915050565b6116e0816114d5565b82525050565b600082825260208201905092915050565b60006117028261159e565b61170c81856116e6565b935061171c8185602086016115ba565b611725816112f3565b840191505092915050565b600060c082019050611745600083018961148b565b61175260208301886116d7565b61175f604083018761148b565b818103606083015261177181866116f7565b905061178060808301856111fc565b61178d60a083018461148b565b979650505050505050565b6000602082840312156117ae576117ad611161565b5b60006117bc848285016114fe565b91505092915050565b600080604083850312156117dc576117db611161565b5b60006117ea858286016112d4565b92505060206117fb85828601611247565b9150509250929050565b7f4e487b7100000000000000000000000000000000000000000000000000000000600052602260045260246000fd5b6000600282049050600182168061184c57607f821691505b60208210810361185f5761185e611805565b5b50919050565b60008190508160005260206000209050919050565b60006020601f8301049050919050565b600082821b905092915050565b6000600883026118c77fffffffffffffffffffffffffffffffffffffffffffffffffffffffffffffffff8261188a565b6118d1868361188a565b95508019841693508086168417925050509392505050565b6000819050919050565b600061190e611909611904846112b3565b6118e9565b6112b3565b9050919050565b6000819050919050565b611928836118f3565b61193c61193482611915565b848454611897565b825550505050565b600090565b611951611944565b61195c81848461191f565b505050565b5b8181101561198057611975600082611949565b600181019050611962565b5050565b601f8211156119c55761199681611865565b61199f8461187a565b810160208510156119ae578190505b6119c26119ba8561187a565b830182611961565b50505b505050565b600082821c905092915050565b60006119e8600019846008026119ca565b1980831691505092915050565b6000611a0183836119d7565b9150826002028217905092915050565b611a1a8261159e565b67ffffffffffffffff811115611a3357611a32611304565b5b611a3d8254611834565b611a48828285611984565b600060209050601f831160018114611a7b5760008415611a69578287015190505b611a7385826119f5565b865550611adb565b601f198416611a8986611865565b60005b82811015611ab157848901518255600182019150602085019450602081019050611a8c565b86831015611ace5784890151611aca601f8916826119d7565b8355505b6001600288020188555050505b505050505050565b6000606082019050611af8600083018661148b565b8181036020830152611b0a81856116f7565b9050611b19604083018461148b565b949350505050565b7f416363657373436f6e74726f6c3a2063616e206f6e6c792072656e6f756e636560008201527f20726f6c657320666f722073656c660000000000000000000000000000000000602082015250565b6000611b7d602f836116e6565b9150611b8882611b21565b604082019050919050565b60006020820190508181036000830152611bac81611b70565b9050919050565b7f496e766f69636520646f6573206e6f7420657869737400000000000000000000600082015250565b6000611be96016836116e6565b9150611bf482611bb3565b602082019050919050565b60006020820190508181036000830152611c1881611bdc565b9050919050565b7f4e487b7100000000000000000000000000000000000000000000000000000000600052603260045260246000fd5b7f496e766f69636520616c72656164792070616964000000000000000000000000600082015250565b6000611c846014836116e6565b9150611c8f82611c4e565b602082019050919050565b60006020820190508181036000830152611cb381611c77565b9050919050565b6000606082019050611ccf600083018661148b565b611cdc602083018561148b565b611ce96040830184611289565b949350505050565b600081905092915050565b7f416363657373436f6e74726f6c3a206163636f756e7420000000000000000000600082015250565b6000611d32601783611cf1565b9150611d3d82611cfc565b601782019050919050565b6000611d538261159e565b611d5d8185611cf1565b9350611d6d8185602086016115ba565b80840191505092915050565b7f206973206d697373696e6720726f6c6520000000000000000000000000000000600082015250565b6000611daf601183611cf1565b9150611dba82611d79565b601182019050919050565b6000611dd082611d25565b9150611ddc8285611d48565b9150611de782611da2565b9150611df38284611d48565b91508190509392505050565b60006020820190508181036000830152611e1981846116f7565b905092915050565b7f4e487b7100000000000000000000000000000000000000000000000000000000600052601160045260246000fd5b6000611e5b826112b3565b9150611e66836112b3565b9250828202611e74816112b3565b91508282048414831517611e8b57611e8a611e21565b5b5092915050565b6000611e9d826112b3565b9150611ea8836112b3565b9250828201905080821115611ec057611ebf611e21565b5b92915050565b6000611ed1826112b3565b915060008203611ee457611ee3611e21565b5b600182039050919050565b7f537472696e67733a20686578206c656e67746820696e73756666696369656e74600082015250565b6000611f256020836116e6565b9150611f3082611eef565b602082019050919050565b60006020820190508181036000830152611f5481611f18565b905091905056fea26469706673582212203e875ca4bc7afb2bcd2b1970ffa1237e3b986bd4ff16ef284d8255ba22696a6c64736f6c63430008120033",
  "linkReferences": {},
  "deployedLinkReferences": {}
}